{
  "_format": "hh-sol-artifact-1",
  "contractName": "RWADividendDistributor",
  "sourceName": "contracts/RWADividendDistributor.sol",
  "abi": [
    {
      "inputs": [],
      "stateMutability": "nonpayable",
      "type": "constructor"
    },
    {
      "inputs": [
        {
          "internalType": "address",
          "name": "owner",
          "type": "address"
        }
      ],
      "name": "OwnableInvalidOwner",
      "type": "error"
    },
    {
      "inputs": [
        {
          "internalType": "address",
          "name": "account",
          "type": "address"
        }
      ],
      "name": "OwnableUnauthorizedAccount",
      "type": "error"
    },
    {
      "inputs": [],
      "name": "ReentrancyGuardReentrantCall",
      "type": "error"
    },
    {
      "anonymous": false,
      "inputs": [
        {
          "indexed": true,
          "internalType": "address",
          "name": "investor",
          "type": "address"
        },
        {
          "indexed": true,
          "internalType": "bytes32",
          "name": "taskId",
          "type": "bytes32"
        },
        {
          "indexed": false,
          "internalType": "uint256",
          "name": "amount",
          "type": "uint256"
        },
        {
          "indexed": false,
          "internalType": "uint256",
          "name": "timestamp",
          "type": "uint256"
        }
      ],
      "name": "DividendClaimed",
      "type": "event"
    },
    {
      "anonymous": false,
      "inputs": [
        {
          "indexed": true,
          "internalType": "address",
          "name": "previousOwner",
          "type": "address"
        },
        {
          "indexed": true,
          "internalType": "address",
          "name": "newOwner",
          "type": "address"
        }
      ],
      "name": "OwnershipTransferred",
      "type": "event"
    },
    {
      "anonymous": false,
      "inputs": [
        {
          "indexed": true,
          "internalType": "bytes32",
          "name": "taskId",
          "type": "bytes32"
        },
        {
          "indexed": false,
          "internalType": "address[]",
          "name": "investors",
          "type": "address[]"
        },
        {
          "indexed": false,
          "internalType": "uint256[]",
          "name": "amounts",
          "type": "uint256[]"
        },
        {
          "indexed": false,
          "internalType": "bytes32",
          "name": "resultHash",
          "type": "bytes32"
        },
        {
          "indexed": false,
          "internalType": "uint256",
          "name": "timestamp",
          "type": "uint256"
        }
      ],
      "name": "PayoutsProcessed",
      "type": "event"
    },
    {
      "inputs": [
        {
          "internalType": "bytes32",
          "name": "_taskId",
          "type": "bytes32"
        }
      ],
      "name": "claimDividend",
      "outputs": [],
      "stateMutability": "nonpayable",
      "type": "function"
    },
    {
      "inputs": [
        {
          "internalType": "bytes32",
          "name": "",
          "type": "bytes32"
        }
      ],
      "name": "completedTasks",
      "outputs": [
        {
          "internalType": "bytes32",
          "name": "resultHash",
          "type": "bytes32"
        },
        {
          "internalType": "uint256",
          "name": "timestamp",
          "type": "uint256"
        }
      ],
      "stateMutability": "view",
      "type": "function"
    },
    {
      "inputs": [
        {
          "internalType": "address",
          "name": "_investor",
          "type": "address"
        }
      ],
      "name": "getInvestorTasks",
      "outputs": [
        {
          "internalType": "bytes32[]",
          "name": "",
          "type": "bytes32[]"
        }
      ],
      "stateMutability": "view",
      "type": "function"
    },
    {
      "inputs": [
        {
          "internalType": "bytes32",
          "name": "_taskId",
          "type": "bytes32"
        }
      ],
      "name": "getPayouts",
      "outputs": [
        {
          "components": [
            {
              "internalType": "address",
              "name": "investor",
              "type": "address"
            },
            {
              "internalType": "uint256",
              "name": "amount",
              "type": "uint256"
            },
            {
              "internalType": "bool",
              "name": "claimed",
              "type": "bool"
            }
          ],
          "internalType": "struct RWADividendDistributor.Payout[]",
          "name": "",
          "type": "tuple[]"
        }
      ],
      "stateMutability": "view",
      "type": "function"
    },
    {
      "inputs": [
        {
          "internalType": "bytes32",
          "name": "_taskId",
          "type": "bytes32"
        }
      ],
      "name": "getTaskDetails",
      "outputs": [
        {
          "components": [
            {
              "internalType": "bytes32",
              "name": "resultHash",
              "type": "bytes32"
            },
            {
              "internalType": "uint256",
              "name": "timestamp",
              "type": "uint256"
            }
          ],
          "internalType": "struct RWADividendDistributor.CompletedTask",
          "name": "",
          "type": "tuple"
        }
      ],
      "stateMutability": "view",
      "type": "function"
    },
    {
      "inputs": [
        {
          "internalType": "address",
          "name": "",
          "type": "address"
        },
        {
          "internalType": "uint256",
          "name": "",
          "type": "uint256"
        }
      ],
      "name": "investorTasks",
      "outputs": [
        {
          "internalType": "bytes32",
          "name": "",
          "type": "bytes32"
        }
      ],
      "stateMutability": "view",
      "type": "function"
    },
    {
      "inputs": [],
      "name": "owner",
      "outputs": [
        {
          "internalType": "address",
          "name": "",
          "type": "address"
        }
      ],
      "stateMutability": "view",
      "type": "function"
    },
    {
      "inputs": [
        {
          "internalType": "bytes32",
          "name": "_taskId",
          "type": "bytes32"
        },
        {
          "internalType": "bytes",
          "name": "_result",
          "type": "bytes"
        }
      ],
      "name": "receiveResult",
      "outputs": [],
      "stateMutability": "nonpayable",
      "type": "function"
    },
    {
      "inputs": [],
      "name": "renounceOwnership",
      "outputs": [],
      "stateMutability": "nonpayable",
      "type": "function"
    },
    {
      "inputs": [
        {
          "internalType": "bytes32",
          "name": "",
          "type": "bytes32"
        },
        {
          "internalType": "uint256",
          "name": "",
          "type": "uint256"
        }
      ],
      "name": "taskPayouts",
      "outputs": [
        {
          "internalType": "address",
          "name": "investor",
          "type": "address"
        },
        {
          "internalType": "uint256",
          "name": "amount",
          "type": "uint256"
        },
        {
          "internalType": "bool",
          "name": "claimed",
          "type": "bool"
        }
      ],
      "stateMutability": "view",
      "type": "function"
    },
    {
      "inputs": [
        {
          "internalType": "address",
          "name": "newOwner",
          "type": "address"
        }
      ],
      "name": "transferOwnership",
      "outputs": [],
      "stateMutability": "nonpayable",
      "type": "function"
    },
    {
      "stateMutability": "payable",
      "type": "receive"
    }
  ],
  "bytecode": "0x60808060405234607957331560635760008054336001600160a01b0319821681178355916001600160a01b03909116907f8be0079c531659141344cd1fd0a4f28419497f9722a3daafe3b4186f6b6457e09080a360018055610d7f908161007f8239f35b631e4fbdf760e01b600052600060045260246000fd5b600080fdfe608080604052600436101561001d575b50361561001b57600080fd5b005b60003560e01c90816309a7cd8614610b2f5750806331f9ddcd14610afa5780634c8ff82f14610aa35780635dd8085514610561578063715018a6146104fb5780638da5cb5b146104d45780638fdc610b14610474578063b2b41784146102c2578063d54a70e8146101bf578063f2fde38b146101105763f802ebae146100a3573861000f565b3461010b57604036600319011261010b5760243560043560005260026020526040600020805482101561010b576060916100dc91610c2a565b506001600160a01b038154169060ff600260018301549201541690604051928352602083015215156040820152f35b600080fd5b3461010b57602036600319011261010b576001600160a01b03610131610be6565b610139610d07565b168015610190576001600160a01b036000548273ffffffffffffffffffffffffffffffffffffffff19821617600055167f8be0079c531659141344cd1fd0a4f28419497f9722a3daafe3b4186f6b6457e0600080a3005b7f1e4fbdf700000000000000000000000000000000000000000000000000000000600052600060045260246000fd5b3461010b57602036600319011261010b57600435600052600260205260406000208054906101ec82610ca0565b916101fa6040519384610c7e565b80835260208301809260005260206000206000915b83831061027d5784866040519182916020830190602084525180915260408301919060005b818110610242575050500390f35b9193509160206060600192604087516001600160a01b0381511683528481015185840152015115156040820152019401910191849392610234565b6003602060019260405161029081610c46565b6001600160a01b038654168152848601548382015260ff6002870154161515604082015281520192019201919061020f565b3461010b57602036600319011261010b576004356102de610ccc565b8060005260036020526001604060002001541561040a5780600052600260205260406000209060009160005b81548110156104025761031d8183610c2a565b50546001600160a01b03163314806103e9575b61033c5760010161030a565b9250600261034a8483610c2a565b5001600160ff198254161790556103646001938492610c2a565b5001546040519081524260208201527fb4d35531617753b2aa30dc3e40bf31af4556dfab46cb4825e7e0d33ab9cc0b1f60403392a35b156103a55760018055005b606460405162461bcd60e51b815260206004820152602060248201527f4e6f206469766964656e6420617661696c61626c6520666f722063616c6c65726044820152fd5b5060ff60026103f88385610c2a565b5001541615610330565b50505061039a565b608460405162461bcd60e51b815260206004820152602260248201527f5461736b206e6f7420636f6d706c657465206f7220646f65736e27742065786960448201527f73740000000000000000000000000000000000000000000000000000000000006064820152fd5b3461010b57602036600319011261010b576000602060405161049581610c62565b8281520152600435600052600360205260408060002081516104b681610c62565b60206001835493848452015491019081528251918252516020820152f35b3461010b57600036600319011261010b5760206001600160a01b0360005416604051908152f35b3461010b57600036600319011261010b57610514610d07565b60006001600160a01b03815473ffffffffffffffffffffffffffffffffffffffff1981168355167f8be0079c531659141344cd1fd0a4f28419497f9722a3daafe3b4186f6b6457e08280a3005b3461010b57604036600319011261010b5760043560243567ffffffffffffffff811161010b573660238201121561010b57806004013567ffffffffffffffff811161010b57810190602482019136831161010b576105bd610ccc565b836000526003602052600160406000200154610a5f576060908290031261010b57602481013567ffffffffffffffff811161010b5781018260438201121561010b5760248101359261060e84610ca0565b9161061c6040519384610c7e565b848352602083019060206024839760051b830101019083821161010b57604401915b818310610a3f57505050604483013567ffffffffffffffff811161010b578301928160438501121561010b5760248401359161067983610ca0565b946106876040519687610c7e565b838652602086019060206024839660051b8301010192831161010b57604401905b828210610a2f575050506064013582518451036109eb578251156109a75760005b83518110156108c6576001600160a01b036106e48286610cb8565b511615610882576106f58186610cb8565b511561083e5786600052600260205260406000206001600160a01b0361071b8387610cb8565b51166107278388610cb8565b516040519161073583610c46565b8252602082019081526040820192600084528054680100000000000000008110156108125761076991600182018155610c2a565b919091610828576001600160a01b03600293511673ffffffffffffffffffffffffffffffffffffffff19835416178255516001820155019051151560ff801983541691161790556001600160a01b036107c28286610cb8565b511660005260046020526040600020908154916801000000000000000083101561081257826107f79160018095018155610bfc565b81549060031b908a821b91600019901b1916179055016106c9565b634e487b7160e01b600052604160045260246000fd5b634e487b7160e01b600052600060045260246000fd5b606460405162461bcd60e51b815260206004820152601560248201527f496e76616c6964207061796f757420616d6f756e7400000000000000000000006044820152fd5b606460405162461bcd60e51b815260206004820152601860248201527f496e76616c696420696e766573746f72206164647265737300000000000000006044820152fd5b508486946040516108d681610c62565b83815260016020820142815288600052600360205260406000209251835551910155604051946080860190608087525180915260a08601929060005b8181106109885750505060209085830382870152519182815201929060005b81811061097257867f11c9edd78c07e2c5def5e07b34307c22f605d9b587be63fba4708eb8c5687def8780888860408301524260608301520390a260018055005b8251855260209485019490920191600101610931565b82516001600160a01b0316855260209485019490920191600101610912565b606460405162461bcd60e51b815260206004820152600c60248201527f456d70747920726573756c7400000000000000000000000000000000000000006044820152fd5b606460405162461bcd60e51b815260206004820152601560248201527f496e76616c696420726573756c74206c656e67746800000000000000000000006044820152fd5b81358152602091820191016106a8565b82356001600160a01b038116810361010b5781526020928301920161063e565b606460405162461bcd60e51b815260206004820152601660248201527f5461736b20616c72656164792070726f636573736564000000000000000000006044820152fd5b3461010b57604036600319011261010b57610abc610be6565b6001600160a01b03602435911660005260046020526040600020805482101561010b57602091610aeb91610bfc565b90549060031b1c604051908152f35b3461010b57602036600319011261010b5760043560005260036020526040806000206001815491015482519182526020820152f35b3461010b57602036600319011261010b576001600160a01b03610b50610be6565b16600052600460205260406000209081548082526020820190819360005260206000209060005b818110610bd05750505081610b8d910382610c7e565b6040519182916020830190602084525180915260408301919060005b818110610bb7575050500390f35b8251845285945060209384019390920191600101610ba9565b8254845260209093019260019283019201610b77565b600435906001600160a01b038216820361010b57565b8054821015610c145760005260206000200190600090565b634e487b7160e01b600052603260045260246000fd5b8054821015610c14576000526003602060002091020190600090565b6060810190811067ffffffffffffffff82111761081257604052565b6040810190811067ffffffffffffffff82111761081257604052565b90601f8019910116810190811067ffffffffffffffff82111761081257604052565b67ffffffffffffffff81116108125760051b60200190565b8051821015610c145760209160051b010190565b600260015414610cdd576002600155565b7f3ee5aeb50000000000000000000000000000000000000000000000000000000060005260046000fd5b6001600160a01b03600054163303610d1b57565b7f118cdaa7000000000000000000000000000000000000000000000000000000006000523360045260246000fdfea26469706673582212209e8c05406888da1d2ad888613d2cbe54b609aff6a5361349b2a092eb22b7863064736f6c634300081e0033",
  "linkReferences": {},
  "deployedLinkReferences": {}
}